:1000000045C069C068C067C066C065C064C063C0E1
:1000100062C032C360C0D5C506C65DC05CC05BC0EF
:100020005AC059C058C00000000000000000000481
:1000300005070000000000000000000000010204AD
:10004000081020408001020408102001020408105A
:100050002040804004040404040404040202020258
:10006000020203030303030302020300000000363D
:10007000003300300000000000380035003200007E
:1000800000000037003400310000410611241FBE7B
:10009000CFE5D4E0DEBFCDBF10E0A0E6B0E0E6EBF8
:1000A000FDE002C005900D92A838B107D9F721E014
:1000B000A8E8B0E001C01D92A334B207E1F710E058
:1000C000C6E4D0E003C02197FE016DD6C534D10748
:1000D000D1F730D66EC694CF26E040E855E260E016
:1000E00070E086EA90E01CD560E080917300B8D3A0
:1000F00060E080917100B4D360E080916F00B0D374
:1001000060E080916D00ACD361E08DE0A9D362E046
:1001100080916B00A5D361E080916900A1C381E06B
:100120008093880042E050E067E670E086EA90E065
:10013000D3D56091660086EA90E0ACD4609165000A
:1001400086EA90E0A7D460919D0086EA90E0A2D470
:100150006091990086EA90E09DD460919A0086EAC9
:1001600090E098D460919B0086EA90E093D46091EF
:10017000620086EA90E08ED460919C0086EA90E06E
:1001800089D46091600086EA90E084D480919F00D9
:1001900080939E0010928800089542E050E067E648
:1001A00070E086EA90E098D56091660086EA90E07B
:1001B00071D46091650086EA90E06CD4609164002F
:1001C00086EA90E067D46091990086EA90E062D474
:1001D00060919A0086EA90E05DD460919B0086EA87
:1001E00090E058D46091620086EA90E053D4609128
:1001F0009C0086EA90E04ED46091600086EA90E030
:1002000049C481E08093880042E050E067E670E0F6
:1002100086EA90E061D56091660086EA90E03AD483
:100220006091650086EA90E035D46091630086EACB
:1002300090E030D460E086EA90E02CD460916100D8
:1002400086EA90E027D46091600086EA90E022D4AC
:10025000109288000895CF93DF936AE070E080E009
:1002600090E09ED210929600109295008091950099
:10027000909196000697ECF486EA90E082D31816E7
:1002800019066CF4C0919500D091960086EA90E032
:1002900092D3CC0FDD1FC757DF4F9983888380919E
:1002A000950090919600019690939600809395000A
:1002B000DDCF2091650080918B0090918C002817F4
:1002C000190699F42091660080918D0090918E001E
:1002D0002817190651F42091640080918F009091A5
:1002E00090002817190609F458DF209165008091C5
:1002F0008B0090918C0028171906A9F420916600B4
:1003000080918D0090918E002817190661F420913C
:10031000630080918F00909190002817190619F4BE
:10032000DF91CF916ECFDF91CF91089582E001D31D
:10033000909374008093730083E0FBD290937200DB
:100340008093710084E0F5D29093700080936F00E9
:1003500085E0EFD290936E0080936D0086E0E9D245
:1003600090936C0080936B00809173009091740067
:10037000009709F089C080917100909172000097F8
:1003800009F05EC120916F0030917000232B81F441
:1003900020916D0030916E00232B51F421E52093C4
:1003A000620010929B001092980021E020939F0021
:1003B0000097C1F420916F00309170002130310519
:1003C00089F420916D0030916E00232B59F420E1C7
:1003D0002093620025E020939B0031E03093980049
:1003E00020939F0081309105C9F420916F003091D6
:1003F00070002130310591F420916D0030916E0034
:10040000232B61F428E12093620026E020939B00D7
:1004100021E02093980027E020939F000097C9F4E3
:1004200020916F0030917000232B99F420916D0082
:1004300030916E002130310561F424E22093620096
:1004400020E920939B0021E02093980029E020934D
:100450009F00019709F0BBC080916F0090917000E0
:10046000892B09F0B4C080916D0090916E000197C6
:1004700009F0ADC081E58093620010929B0081E09D
:10048000809398008BE0A1C0019709F0A0C08091F3
:100490007100909172000097B9F420916F00309133
:1004A0007000232B89F420916D0030916E00232B76
:1004B00059F421E02093620030E930939B002093AF
:1004C000980022E020939F0081309105C1F4209193
:1004D0006F0030917000232B91F420916D003091CA
:1004E0006E00232B61F427E02093620020E120932B
:1004F0009B0021E02093980024E020939F00009728
:10050000C9F420916F00309170002130310591F4D1
:1005100020916D0030916E00232B61F424E1209333
:10052000620020E220939B0021E02093980026E0C7
:1005300020939F0081309105C9F420916F00309184
:1005400070002130310591F420916D0030916E00E2
:10055000232B61F421E22093620020E220939B0090
:1005600021E02093980028E020939F000097B9F0A5
:10057000019769F580916F0090917000019739F5AE
:1005800080916D0090916E00019709F581E580934F
:10059000620010929B00109298008CE016C080912F
:1005A0006F0090917000892B91F480916D00909173
:1005B0006E00019761F488E28093620080E5809389
:1005C0009B0081E0809398008AE080939F00809157
:1005D0008800811106C090919E0080919F00981321
:1005E0009EDD80918800811112C081E08093880097
:1005F00086EA90E0E0D1809397008E3F09F42BDEED
:1006000061E070E080E090E0CBD0109288008091B3
:100610006B0090916C00892B61F480919800882385
:1006200041F081E0809388007ADD61E0809169008B
:1006300053C160E0809169004FD110928800089505
:100640008130910509F0B4CE20916F003091700097
:10065000232B09F0ADCE20916D0030916E00232B3D
:1006600009F0A6CE23E02093620030E730939B0090
:1006700031E0309398009ACE1F920F920FB60F92EE
:1006800011244F935F936F937F938F939F93409128
:10069000A2005091A3006091A4007091A5008091E8
:1006A000A1009091A0009230F9F4835D1092A00017
:1006B0008D37F8F08D574E5F5F4F6F4F7F4F8093B0
:1006C000A1004093A2005093A3006093A4007093F4
:1006D000A5009F918F917F916F915F914F910F90A6
:1006E0000FBE0F901F9018959F5F9093A000825DA2
:1006F000DFCF4F5F5F4F6F4F7F4FE1CFCF92DF92E2
:10070000EF92FF926FB7F8948091A2009091A300AE
:10071000A091A400B091A5005091A10022B738B7D4
:10072000432F417030FF04C041E02F3F09F440E007
:100730006FBF6C017D0137E0CC0CDD1CEE1CFF1C93
:100740003A95D1F7C50ED11CE11CF11CC81AD90A83
:10075000EA0AFB0A880F991FAA1FBB1FC81AD90AE9
:10076000EA0AFB0A63E0CC0CDD1CEE1CFF1C6A9558
:10077000D1F730E0A5E5B5E00AD3672F782F892FB0
:1007800099276C0D7D1D8E1D9F1D442321F06B5AF2
:100790007A4F8F4F9F4FFF90EF90DF90CF9008954B
:1007A0008F929F92AF92BF92CF92DF92EF92FF9281
:1007B0006B017C01A3DF4B015C01C114D104E10496
:1007C000F104D9F0C1D29ADF681979098A099B0925
:1007D000683E73408105910580F321E0C21AD1087B
:1007E000E108F10888EE880E83E0981EA11CB11C78
:1007F000C114D104E104F10431F7FF90EF90DF90D0
:10080000CF90BF90AF909F908F900895789483B7CA
:10081000836083BF89B7816089BF82E08EBD8EB55A
:1008200081608EBD8FB581608FBD85B5846085BDCB
:1008300085B5806485BD86E886B91AB80895853087
:1008400041F0873049F0843051F48FB58F778FBDF8
:1008500008958FB58F7DFBCF85B58F7D85BD0895BC
:10086000CF93DF9390E0FC01E35CFF4F24918C5A1F
:100870009F4FFC0184918823C9F090E0880F991F55
:10088000FC01E158FF4FA591B491FC01EB58FF4FDB
:10089000C591D49161110DC09FB7F8948C912095AA
:1008A00082238C938881282328839FBFDF91CF9157
:1008B0000895623051F49FB7F8943C91822F80954F
:1008C00083238C93E8812E2BEFCF8FB7F894EC9194
:1008D0002E2B2C938FBFEACF1F93CF93DF93282F1C
:1008E00030E0F901EA5DFF4F8491F901E35CFF4FCD
:1008F000D491F901EC5AFF4FC491CC23A1F0162FEB
:1009000081119DDFEC2FF0E0EE0FFF1FEB58FF4F42
:10091000A591B4918FB7F894EC91111108C0D095BE
:10092000DE23DC938FBFDF91CF911F910895DE2BE3
:10093000F8CFCF93DF93282F30E0F901EA5DFF4F26
:100940008491F901E35CFF4FD491F901EC5AFF4F18
:10095000C491CC2399F0811172DFEC2FF0E0EE0FFF
:10096000FF1FE559FF4FA591B491EC91ED2381E074
:1009700090E009F480E0DF91CF91089580E090E06D
:10098000FACFFC01918D228D892F90E0805C9F4FE2
:10099000821B91098F7399270895FC01918D828D97
:1009A000981731F0828DE80FF11D858D90E0089544
:1009B0008FEF9FEF0895FC01918D828D981761F064
:1009C000A28DAE0FBF2FB11D5D968C91928D9F5F52
:1009D0009F73928F90E008958FEF9FEF0895FC0131
:1009E000538D448D252F30E0842F90E0821B930B94
:1009F000541710F0CF9608950197089588E396E074
:100A0000892B39F080E090E0892B19F031D18111E8
:100A1000F7CA0895FC01A48DA80FB92FB11DA35AE0
:100A2000BF4F2C91848D90E001968F739927848F0E
:100A3000A689B7892C93A089B1898C9180648C9305
:100A4000938D848D981306C00288F389E02D8081F0
:100A50008F7D80830895CF93DF93EC01888D882369
:100A6000B1F0AA89BB89E889F9898C9185FD03C019
:100A7000808186FD0CC00FB607FCF7CF8C9185FFF7
:100A8000F2CF808185FFEDCFCE01C4DFEACFDF91C9
:100A9000CF910895EF92FF920F931F93CF93DF931F
:100AA000EC0181E0888F9B8D8C8D981316C0E889AE
:100AB000F989808185FF11C0EE89FF896083E8890B
:100AC000F98980818064808381E090E0DF91CF911B
:100AD0001F910F91FF90EF900895F62E0B8D10E06F
:100AE0000F5F1F4F0F731127E02E8C8D8E110BC0DF
:100AF0000FB607FCFACFE889F989808185FFF5CF29
:100B0000CE0188DFF2CFEB8DEC0FFD2FF11DE35A04
:100B1000FF4FF0820B8FEA89FB8980818062D3CFFF
:100B2000CF92DF92EF92FF921F93CF93DF93EC016E
:100B30006A017B01122F60EC76EC8DE290E0A70158
:100B4000960103D121503109410951095695479524
:100B500037952795E889F98982E08083211580E11E
:100B6000380790F0E889F989108260E673EE86E133
:100B700090E0A7019601E9D02150310941095109BE
:100B80005695479537952795EC85FD853083EE85FD
:100B9000FF852083188E1068EC89FD891083EA890F
:100BA000FB89808188698083EA89FB8980818F7DC8
:100BB0008083DF91CF911F91FF90EF90DF90CF90D6
:100BC00008951F920F920FB60F9211242F938F93B7
:100BD0009F93EF93FF93E091B600F091B70080816F
:100BE000E091BC00F091BD0082FD1BC0908180911E
:100BF000BF008F5F8F732091C000821741F0E0919A
:100C0000BF00F0E0EA55FF4F958F8093BF00FF9142
:100C1000EF919F918F912F910F900FBE0F901F908A
:100C200018958081F4CF1F920F920FB60F92112466
:100C30002F933F934F935F936F937F938F939F93E4
:100C4000AF93BF93EF93FF9386EA90E0E3DEFF91CB
:100C5000EF91BF91AF919F918F917F916F915F9134
:100C60004F913F912F910F900FBE0F901F901895AD
:100C700086EA90E086DE21E0892B09F420E0822FCD
:100C80000895E6EAF0E01382128288EE93E0A0E095
:100C9000B0E084839583A683B78389E790E091834E
:100CA000808380E490E09587848729E230E037876D
:100CB00026872BE230E0318B208B2AE230E0338B29
:100CC000228B958B848B8CE290E0978B868B118E98
:100CD000128E138E148E0895AF92BF92CF92DF9230
:100CE000EF92FF920F931F93CF93DF936C017B01E1
:100CF0008B01040F151FEB015E01AE18BF08C01772
:100D0000D10759F06991D601ED91FC910190F081E4
:100D1000E02DC6010995892B79F7C501DF91CF91A7
:100D20001F910F91FF90EF90DF90CF90BF90AF9009
:100D3000089508956BDDFDDFCFD9CEEFD4E0F6DA6C
:100D40002097E9F35BDEFBCF0895A1E21A2EAA1BE0
:100D5000BB1BFD010DC0AA1FBB1FEE1FFF1FA2176B
:100D6000B307E407F50720F0A21BB30BE40BF50B68
:100D7000661F771F881F991F1A9469F760957095F1
:100D8000809590959B01AC01BD01CF010895A29F74
:100D9000B001B39FC001A39F01D0B29F700D811D10
:100DA0001124911D0895EE0FFF1F0590F491E02D81
:060DB0000994F894FFCF46
:100DB600FD025104033054FEFE130012000E000F14
:100DC6000010001100000000004A056C06EF042B1D
:080DD60005C104DB04CD04009B
:00000001FF
