:1000000045C069C068C067C066C065C064C063C0E1
:1000100062C0B9C260C05CC58DC55DC05CC05BC05C
:100020005AC059C058C00000000000000000000481
:1000300005070000000000000000000000010204AD
:10004000081020408001020408102001020408105A
:100050002040804004040404040404040202020258
:10006000020203030303030302020300000000363D
:10007000003300300000000000380035003200007E
:1000800000000037003400310000C80511241FBEF5
:10009000CFE5D4E0DEBFCDBF10E0A0E6B0E0E4ECF9
:1000A000FCE002C005900D92A838B107D9F721E015
:1000B000A8E8B0E001C01D92A234B207E1F710E059
:1000C000C6E4D0E003C02197FE01F4D5C534D107C2
:1000D000D1F7B7D5F5C594CF26E040E855E260E00A
:1000E00070E085EA90E0A3D460E0809173003FD394
:1000F00060E0809171003BD360E080916F0037D366
:1001000060E080916D0033D362E080916B002FD36B
:1001100061E0809169002BC342E050E067E670E047
:1001200085EA90E060D56091660085EA90E039D478
:100130006091650085EA90E034D480919C0088232A
:10014000B1F06091630085EA90E02BD460E085EA2D
:1001500090E027D46091610085EA90E022D460911C
:10016000600085EA90E01DD410929C000895609193
:10017000640085EA90E015D46091980085EA90E0EB
:1001800010D46091990085EA90E00BD460919A00B8
:1001900085EA90E006D46091620085EA90E001D49F
:1001A00060919B00D9CFCF93DF936AE070E080E04D
:1001B00090E07DD21092950010929400809194006E
:1001C000909195000697ECF485EA90E061D31816BB
:1001D00019066CF4C0919400D091950085EA90E0E6
:1001E00071D3CC0FDD1FC857DF4F9983888380916F
:1001F00094009091950001969093950080939400BF
:10020000DDCF2091650080918A0090918B002817A6
:10021000190621F52091660080918C0090918D0047
:1002200028171906D9F420918E0030918F00809103
:10023000630090E0409164004217130649F02817CC
:10024000390761F481E080939C00DF91CF9164CF06
:1002500028173907B9F310929C00F7CFDF91CF919F
:10026000089581E1EDD2909374008093730080E152
:10027000E7D290937200809371008FE0E1D2909367
:10028000700080936F008EE0DBD290936E008093BD
:100290006D0082E1D5D290936C0080936B008091C9
:1002A000730090917400009709F089C080917100EB
:1002B00090917200009709F04AC120916F0030912F
:1002C0007000232B81F420916D0030916E00232B60
:1002D00051F421E52093620010929A001092970049
:1002E00021E020939E000097C1F420916F0030918F
:1002F00070002130310589F420916D0030916E003D
:10030000232B59F420E12093620025E020939A00EA
:1003100031E03093970020939E0081309105C9F41D
:1003200020916F00309170002130310591F42091BF
:100330006D0030916E00232B61F428E12093620060
:1003400026E020939A0021E02093970027E0209355
:100350009E000097C9F420916F0030917000232B0C
:1003600099F420916D0030916E002130310561F4D7
:1003700024E22093620020E920939A0021E0209358
:10038000970029E020939E00019709F0BBC080915F
:100390006F0090917000892B09F0B4C080916D00BE
:1003A00090916E00019709F0ADC081E580936200E5
:1003B00010929A0081E0809397008BE0A1C0019792
:1003C00009F0A0C080917100909172000097B9F47B
:1003D00020916F0030917000232B89F420916D00E3
:1003E00030916E00232B59F421E02093620030E914
:1003F00030939A002093970022E020939E00813052
:100400009105C1F420916F0030917000232B91F47D
:1004100020916D0030916E00232B61F427E0209332
:10042000620020E120939A0021E02093970024E0CD
:1004300020939E000097C9F420916F0030917000C6
:100440002130310591F420916D0030916E00232B05
:1004500061F424E12093620020E220939A0021E0DD
:100460002093970026E020939E0081309105C9F4E7
:1004700020916F00309170002130310591F420916E
:100480006D0030916E00232B61F421E22093620015
:1004900020E220939A0021E02093970028E0209307
:1004A0009E000097B9F0019769F580916F009091D7
:1004B0007000019739F580916D0090916E00019761
:1004C00009F581E58093620010929A0010929700DE
:1004D0008CE016C080916F0090917000892B91F490
:1004E00080916D0090916E00019761F488E2809395
:1004F000620080E580939A0081E0809397008AE013
:1005000080939E0090919D0080919E00981719F015
:1005100010929C0001DE85EA90E0D4D18093960091
:100520008E3F09F440DE61E070E080E090E0BFD0F3
:1005300080916B0090916C00892B29F48091970039
:1005400061E0811101C060E0809169004CC181309F
:10055000910509F0C8CE20916F0030917000232BD7
:1005600009F0C1CE20916D0030916E00232B09F06F
:10057000BACE23E02093620030E730939A0031E056
:1005800030939700AECE1F920F920FB60F921124A8
:100590004F935F936F937F938F939F934091A100AD
:1005A0005091A2006091A3007091A4008091A000DE
:1005B00090919F009230F9F4835D10929F008D37E7
:1005C000F8F08D574E5F5F4F6F4F7F4F8093A000C5
:1005D0004093A1005093A2006093A3007093A400E5
:1005E0009F918F917F916F915F914F910F900FBE6F
:1005F0000F901F9018959F5F90939F00825DDFCFB3
:100600004F5F5F4F6F4F7F4FE1CFCF92DF92EF92FF
:10061000FF926FB7F8948091A1009091A200A091F1
:10062000A300B091A4005091A00022B738B7432F87
:10063000417030FF04C041E02F3F09F440E06FBF3C
:100640006C017D0137E0CC0CDD1CEE1CFF1C3A95E3
:10065000D1F7C50ED11CE11CF11CC81AD90AEA0A4F
:10066000FB0A880F991FAA1FBB1FC81AD90AEA0ADA
:10067000FB0A63E0CC0CDD1CEE1CFF1C6A95D1F775
:1006800030E0A5E5B5E00AD3672F782F892F9927A9
:100690006C0D7D1D8E1D9F1D442321F06B5A7A4FDA
:1006A0008F4F9F4FFF90EF90DF90CF9008958F92E4
:1006B0009F92AF92BF92CF92DF92EF92FF926B0127
:1006C0007C01A3DF4B015C01C114D104E104F104FE
:1006D000D9F0C1D29ADF681979098A099B09683E65
:1006E00073408105910580F321E0C21AD108E10829
:1006F000F10888EE880E83E0981EA11CB11CC1147D
:10070000D104E104F10431F7FF90EF90DF90CF9036
:10071000BF90AF909F908F900895789483B7836037
:1007200083BF89B7816089BF82E08EBD8EB581604D
:100730008EBD8FB581608FBD85B5846085BD85B563
:10074000806485BD86E886B91AB80895853041F081
:10075000873049F0843051F48FB58F778FBD08957D
:100760008FB58F7DFBCF85B58F7D85BD0895CF93E8
:10077000DF9390E0FC01E35CFF4F24918C5A9F4F84
:10078000FC0184918823C9F090E0880F991FFC0137
:10079000E158FF4FA591B491FC01EB58FF4FC59173
:1007A000D49161110DC09FB7F8948C91209582234C
:1007B0008C938881282328839FBFDF91CF91089550
:1007C000623051F49FB7F8943C91822F8095832337
:1007D0008C93E8812E2BEFCF8FB7F894EC912E2BD2
:1007E0002C938FBFEACF1F93CF93DF93282F30E056
:1007F000F901EA5DFF4F8491F901E35CFF4FD49169
:10080000F901EC5AFF4FC491CC23A1F0162F8111AE
:100810009DDFEC2FF0E0EE0FFF1FEB58FF4FA5918F
:10082000B4918FB7F894EC91111108C0D095DE23E4
:10083000DC938FBFDF91CF911F910895DE2BF8CF0E
:10084000CF93DF93282F30E0F901EA5DFF4F8491C9
:10085000F901E35CFF4FD491F901EC5AFF4FC491C9
:10086000CC2399F0811172DFEC2FF0E0EE0FFF1F27
:10087000E559FF4FA591B491EC91ED2381E090E013
:1008800009F480E0DF91CF91089580E090E0FACF05
:10089000FC01918D228D892F90E0805C9F4F821BFF
:1008A00091098F7399270895FC01918D828D981776
:1008B00031F0828DE80FF11D858D90E008958FEF66
:1008C0009FEF0895FC01918D828D981761F0A28DA4
:1008D000AE0FBF2FB11D5D968C91928D9F5F9F7360
:1008E000928F90E008958FEF9FEF0895FC01538D54
:1008F000448D252F30E0842F90E0821B930B5417FA
:1009000010F0CF960895019708958FEB95E0892B0D
:1009100039F080E090E0892B19F031D1811170CB52
:100920000895FC01A48DA80FB92FB11DA35ABF4F84
:100930002C91848D90E001968F739927848FA689DE
:10094000B7892C93A089B1898C9180648C93938D05
:10095000848D981306C00288F389E02D80818F7DF5
:1009600080830895CF93DF93EC01888D8823B1F0C5
:10097000AA89BB89E889F9898C9185FD03C08081AA
:1009800086FD0CC00FB607FCF7CF8C9185FFF2CF28
:10099000808185FFEDCFCE01C4DFEACFDF91CF911B
:1009A0000895EF92FF920F931F93CF93DF93EC0183
:1009B00081E0888F9B8D8C8D981316C0E889F9890A
:1009C000808185FF11C0EE89FF896083E889F989FC
:1009D00080818064808381E090E0DF91CF911F91DE
:1009E0000F91FF90EF900895F62E0B8D10E00F5FA2
:1009F0001F4F0F731127E02E8C8D8E110BC00FB679
:100A000007FCFACFE889F989808185FFF5CFCE010F
:100A100088DFF2CFEB8DEC0FFD2FF11DE35AFF4F76
:100A2000F0820B8FEA89FB8980818062D3CFCF92DD
:100A3000DF92EF92FF921F93CF93DF93EC016A0155
:100A40007B01122F60EC76EC8DE290E0A70196011D
:100A500003D12150310941095109569547953795E0
:100A60002795E889F98982E08083211580E138079C
:100A700090F0E889F989108260E673EE86E190E0F3
:100A8000A7019601E9D02150310941095109569534
:100A9000479537952795EC85FD853083EE85FF8555
:100AA0002083188E1068EC89FD891083EA89FB8900
:100AB000808188698083EA89FB8980818F7D80833A
:100AC000DF91CF911F91FF90EF90DF90CF9008952D
:100AD0001F920F920FB60F9211242F938F939F9313
:100AE000EF93FF93E091B500F091B6008081E09123
:100AF000BB00F091BC0082FD1BC090818091BE00C4
:100B00008F5F8F732091BF00821741F0E091BE008C
:100B1000F0E0EB55FF4F958F8093BE00FF91EF9172
:100B20009F918F912F910F900FBE0F901F9018954E
:100B30008081F4CF1F920F920FB60F9211242F9342
:100B40003F934F935F936F937F938F939F93AF9355
:100B5000BF93EF93FF9385EA90E0E3DEFF91EF917F
:100B6000BF91AF919F918F917F916F915F914F91C5
:100B70003F912F910F900FBE0F901F90189585EA0F
:100B800090E086DE21E0892B09F420E0822F089591
:100B9000E5EAF0E01382128288EE93E0A0E0B0E094
:100BA00084839583A683B78389E790E091838083CC
:100BB00080E490E09587848729E230E037872687B4
:100BC0002BE230E0318B208B2AE230E0338B228B1A
:100BD000958B848B8CE290E0978B868B118E128E96
:100BE000138E148E0895AF92BF92CF92DF92EF9240
:100BF000FF920F931F93CF93DF936C017B018B01C7
:100C0000040F151FEB015E01AE18BF08C017D10716
:100C100059F06991D601ED91FC910190F081E02DA0
:100C2000C6010995892B79F7C501DF91CF911F91F5
:100C30000F91FF90EF90DF90CF90BF90AF9008950D
:100C400008956BDDFDDF48DAC5E8D4E00ADB2097C4
:100C5000E9F35BDEFBCF0895A1E21A2EAA1BBB1BB2
:100C6000FD010DC0AA1FBB1FEE1FFF1FA217B30778
:100C7000E407F50720F0A21BB30BE40BF50B661F8E
:100C8000771F881F991F1A9469F760957095809552
:100C900090959B01AC01BD01CF010895A29FB001C9
:100CA000B39FC001A39F01D0B29F700D811D11247D
:100CB000911D0895EE0FFF1F0590F491E02D09940A
:040CC000F894FFCFD6
:100CC400FD025104033054FEFE130012000E000F07
:100CD400001000110000000000D104F3057604B2F6
:080CE4000448046204540400FA
:00000001FF
